:100000000C94D3000C94FB000C94FB000C94FB00AC
:100010000C94FB000C94FB000C94FB000C94FB0074
:100020000C94FB000C94FB000C940A0A0C94790AC3
:100030000C94FB000C94FB000C94FB000C94FB0054
:100040000C94FB000C94FB000C94FB000C94FB0044
:100050000C94FB000C94FB000C94FB000C94AB0C78
:100060000C94FB000C94FB000C94FB000C94FB0024
:100070000C94FB000C94FB000C94FB000C94FB0014
:100080000C94FB000C94FB000C94FB000C94FB0004
:100090000C94FB000C94FB000C94FB000C94FB00F4
:1000A0000C94FB000C94FB000C94FB00000000007F
:1000B000240027002A002D003000080B0002020255
:1000C00000000904000001020200000524001001E4
:1000D0000524010101042402060524060001070588
:1000E000810310004009040100020A000000070516
:1000F00002024000000705830240000004030904D7
:1001000012010002EF02014023813482000101024A
:100110000301417574686F720053494D4E414E4D55
:10012000552D4550312D41000000000023002600D0
:1001300029002C002F000000000200090F0000031E
:100140000401000C0000000000000000000000009E
:100150000000000000040802011040804010204010
:1001600080408008020401804020100201108010AD
:100170002040402000000000250028002B002E0019
:10018000310004040404040304050202020204030F
:100190000202020206060606060604040202020421
:1001A0000400280D5B1411241FBECFEFDAE0DEBF80
:1001B000CDBF11E0A0E0B1E0E6E7FEE202C00590AD
:1001C0000D92A437B107D9F723E0A4E7B1E001C04D
:1001D0001D92A538B207E1F710E0C2EDD0E004C0EF
:1001E0002197FE010E941915C13DD107C9F70E9450
:1001F000AB0F0C942E170C940000CF93DF93FC01EF
:1002000090912103992361F0699FB0011124672F18
:10021000949FA0011124452F929F90011124232F18
:10022000309127038091220390912303509124035E
:10023000351343C0DF01AA0FBB1FEA0FFB1F8E0F50
:100240009F1FC0912403C80FD92FD11DE881E62735
:10025000A0912C03B0912D03AE0FB11DB0932D03CF
:10026000A0932C03E0912503E80FF92FF11DE08105
:10027000E427EA0FFB2FF11DF0932D03E0932C03ED
:10028000A0912603A80FB92FB11D3C913227E30F8F
:10029000F11DF0932D03E0932C036883E091250377
:1002A000E80FF92FF11D408330912603830F911D34
:1002B000FC012083DF91CF910895EE0FFF1FEE0F19
:1002C000FF1F8E0F9F1FFC01E30FF11D1082B9CF9E
:1002D000CF92DF92EF92FF920F931F93CF93DF9312
:1002E000D901E8016A01F9014217530714F06901C5
:1002F000FA01882309F440C0CB016C157D050CF48C
:10030000C6019F018E179F070CF49C01A417B50727
:1003100034F4CF01821B930B9C012C0D3D1D0D2C41
:10032000000CEE08FF08032E000C440B550B2C1993
:100330003D094E095F09AEEFBFEF0E9492149F0185
:10034000FF0F440B550B2C193D094E095F090E9404
:100350007314DA01C9018F5F9F47A109B10988832E
:10036000998382E090E0DF91CF911F910F91FF90F0
:10037000EF90DF90CF90089590E080E0F4CFFC0103
:100380008091C202882311F13FB7F89482E08093F4
:10039000E9002091F200822F90E01816190614F45B
:1003A00081E090E0882339F0289844E64093C10228
:1003B0004091F1004083222339F02091F200211175
:1003C00003C02BE62093E8003FBF08958FEF9FEF17
:1003D00008954091A4015091A5012091A20130916E
:1003E000A30142175307B4F49091E8009570E1F32C
:1003F0009091E80092FD19C08093F1008091A401D2
:100400009091A50101968F739927892B19F48EEF8E
:100410008093E8008091A4019091A50101969093AA
:10042000A5018093A40181E0089580E00895DF9202
:10043000EF92FF920F931F93CF93DF93D82E8A01F1
:10044000EB017B01E40EF51ECE15DF0559F0D7FE5A
:1004500012C0FE0184910E94E90121968111F4CF1E
:100460000FEF1FEFC801DF91CF911F910F91FF9008
:10047000EF90DF9008958881EECF2FB7F8948770C2
:100480008093E9009091E800892F807295FF04C065
:100490009091F20080E4891B2FBF0895615030F0E5
:1004A0002091F100FC0120830196F8CF289884E682
:1004B0008093C102089580919A0181110DC082E05C
:1004C0008093960184E08093970110929901109295
:1004D000980181E080939A0186E991E008950F9355
:1004E0001F93CF93DF931F92CDB7DEB782E089834E
:1004F00042E450E06AEB70E080E80E9417020E943C
:100500005B02DC0112960D911C910115110589F019
:10051000D801ED91FC910280F381E02DBE016F5F67
:100520007F4FC801099597FD04C0F801008511852A
:10053000ECCF89810F90DF91CF911F910F9108959A
:10054000CF93DF931F92CDB7DEB76983DC01ED91C6
:10055000FC910280F381E02D41E050E0BE016F5F2D
:100560007F4F09950F90DF91CF91089583E080939D
:10057000E9008091F200882319F08AE38093E80073
:10058000089583E00E943D0290E00895CF93DF93A9
:100590001F92CDB7DEB7FC018485958597FD08C015
:1005A0002FEF3FEF358724870F90DF91CF9108958C
:1005B000CE0101960E94BF01019719F4898190E054
:1005C000F3CF8FEF9FEFF0CF0F931F93CF93DF9376
:1005D0001F92CDB7DEB78C01FC018485958597FF0E
:1005E0000BC0CE0101960E94BF01019771F4898171
:1005F00090E0F80195878487F801848595850F90B0
:10060000DF91CF911F910F9108958FEF9FEFF1CF61
:10061000FC018485958597FD0BC09FB7F89482E017
:100620008093E9008091F2009FBF90E001960895C9
:100630009FB7F89482E08093E9008091F2009FBF19
:1006400090E0089581508F3008F047C0E82FF0E027
:10065000E45DFC4F0C94191549034D033B03410322
:1006600045036D036D036D03500356035A035E0388
:1006700064036D036803809180008F77809380000E
:100680000895809180008F7DF9CF80918000877FD1
:10069000F5CF84B58F7784BD089584B58F7DFBCF6A
:1006A000809190008F7780939000089580919000C2
:1006B0008F7DF9CF80919000877FF5CF8091C0002A
:1006C0008F778093C00008958091C0008F7DF9CF0F
:1006D0008091C200877F8093C2000895CF93DF93FB
:1006E000282F30E0F901EA5CFE4F8491F901EB5AC2
:1006F000FE4FD491F901EE57FE4FC491CC2391F0F7
:1007000081110E942203EC2FF0E0EE0FFF1FEC5846
:10071000FE4FA591B4918FB7F894EC91D095DE235C
:10072000DC938FBFDF91CF910895CF93DF9390E05B
:10073000FC01EB5AFE4F24918E579E4FFC01849191
:100740008823C9F090E0880F991FFC01E455FF4F02
:10075000A591B491FC01EC58FE4FC591D491611163
:100760000DC09FB7F8948C91209582238C9388813B
:10077000282328839FBFDF91CF910895623051F4E1
:100780009FB7F8943C91822F809583238C93E881C6
:100790002E2BEFCF8FB7F894EC912E2B2C938FBF8D
:1007A000EACF3FB7F8948091920190919301A09184
:1007B0009401B091950126B5A89B05C02F3F19F073
:1007C0000196A11DB11D3FBFBA2FA92F982F8827D1
:1007D000BC01CD01620F711D811D911D42E0660FAC
:1007E000771F881F991F4A95D1F708950F931F937C
:1007F000CF93DF93CDB7DEB729970FB6F894DEBF5E
:100800000FBECDBF8091220390912303892B09F461
:1008100087C080912C0390912D03892B09F480C00F
:1008200010922D0310922C030E94D10300912803F3
:100830001091290320912A0330912B03601771072F
:100840008207930740F460932803709329038093F1
:100850002A0390932B0300912803109129032091E0
:100860002A0330912B03601B710B820B930B6C32AC
:10087000714081059105C0F2F89480911D0390911B
:100880001E039A838983E0912203F0912303DF0101
:1008900011968081898790911903E0912E03F09140
:1008A0002F0380913003992309F445C09081982B40
:1008B00098879081809589238F838F818C8388E0AE
:1008C0008B8358856F8149853B812C8189819A81F1
:1008D000508347FD252F3A952083262F39F0441F5A
:1008E00000C000006083000000C0F2CF38E04D91EE
:1008F00060830000019761F7F0932F03E0932E03CC
:1009000049873B832C839A83898378940E94D103FF
:10091000609328037093290380932A0390932B03F9
:1009200029960FB6F894DEBF0FBECDBFDF91CF91F1
:100930001F910F9108959081982B988790818095B1
:1009400089238F838F818E8388E08D8358856F8183
:1009500049853D812E8189819A81508347FD252FCC
:1009600000C000C0208300C000C000C000C000C0A4
:1009700060830000262F3A9541F0441F000000C01C
:1009800000C000C000C000C0E8CF38E04D9100C0FA
:10099000608300C0019709F7F0932F03E0932E03C3
:1009A00049873D832E83AFCFCF92DF92EF92FF92A4
:1009B0000E94D1036B017C010E94D1036C197D0957
:1009C0008E099F09683E734081059105A8F3FF9049
:1009D000EF90DF90CF9008957F928F929F92AF9289
:1009E000BF92CF92DF92EF92FF920F931F93CF931C
:1009F000DF93C82E8B017A018091C202811110C051
:100A00008FEF9FEFDF91CF911F910F91FF90EF90AC
:100A1000DF90CF90BF90AF909F908F907F90089580
:100A20008091A80180FF05C08091E00082608093E2
:100A3000E000CE2DDF2DD12C8AEFB82E8C2D8770C3
:100A4000982E8C2D8072882E8C2D8074782E9AE3AF
:100A5000A92E209719F4DD2009F44EC08C2D0E9498
:100A60003D02811106C0BA94BB2051F20E94D40409
:100A7000F0CF8C171D0611F00CF08C2F9FB7F89457
:100A80009092E9002091E80025FD02C09FBFE1CFD0
:100A9000282F30E0C21BD30B882029F08150A0F012
:100AA0001092F100FBCFF801C7FC0AC0815050F052
:100AB00041914093F100FACF44914093F100319677
:100AC0008150D0F7020F131FDD2021F0A092E80023
:100AD000D12CDCCF8091E80085FD07C0A092E80012
:100AE000DD24D394209791F2F3CF209779F67720E5
:100AF00069F2A092E800CACF5D9884E68093A701CE
:100B0000C70180CFCF93DF93EC018091120188233E
:100B100031F083E00E94EC041816190634F081E0ED
:100B200090E09B838A8380E090E0DF91CF910895ED
:100B30002FB7F89460918E0170918F018091900190
:100B4000909191012FBF0895DC01FB0112962C9129
:100B50001297848195812817190641F4918180812B
:100B6000813A31F49D7F81E0913009F080E0089571
:100B70008132E1F79B3029F482811F968C9381E0CA
:100B800008959A3099F7828150968C93F8CFDC01C2
:100B9000FB0188E4808389E4818384E482831D9659
:100BA0009C911D979F709F5B93831D968D919C9147
:100BB00024E0969587952A95E1F78F708F5B848363
:100BC00085E00895EF92FF920F931F93CF93DF93E9
:100BD000FB012081213889F52381223271F5DC0166
:100BE00012964C91248135814217130631F58C0100
:100BF000FC01C385D485F12CE12C209791F04C8128
:100C00005D816A817B818E81811180E80E9417025B
:100C10008F3F980759F0E80EF91E0990D881C02D32
:100C2000ECCF81E0D8011F968C93C701DF91CF9163
:100C30001F910F91FF90EF90089590E080E0F6CF24
:100C4000CF93DF93CDB7DEB769970FB6F894DEBFC9
:100C50000FBECDBFFC01DB018C918F5F8C939E0199
:100C60002D5F3F4F8DE0D9011D928A95E9F729E06C
:100C7000298384E08A8391E09D8383E08E832A87A1
:100C800021E22B879C879D879F8722E2288B27E084
:100C90002B8B25E02C8B8E8B20E430E0388F2F8B34
:100CA000998F82818B8395858685998B8A8B8381A9
:100CB00080688D8B49E150E0BE016F5F7F4F80E01F
:100CC0000E94170269960FB6F894DEBF0FBECDBF23
:100CD000DF91CF910895CF93DF93809185018111AA
:100CE00067C081E080937801809379012EE731E03D
:100CF00030937B0120937A0110927D0110927C0148
:100D000021E331E03093750120937401109280014A
:100D100010927F01109282011092810180938301D1
:100D20008093840181EC80937E010E945B02FC0130
:100D3000818190917801482F490F5527551F4830E0
:100D400051059CF5A281B381109709F524E731E0A4
:100D500033832283208120937601809377018091D1
:100D60007901820F808320917A01A22FB0917B01BB
:100D70008A2F821B8917C8F481813D91C82FD0E04A
:100D8000C050DF4F38838F5F8183F2CFD90118962F
:100D90002D913C91199721153105C1F724E731E0D8
:100DA00019963C932E931897D5CF81E080938501B7
:100DB00084E791E0DF91CF910895CF93DF93D0E066
:100DC000C0E080911B0390911C03C817D90730F431
:100DD0002FE34FE36FE3CE010E94FD002196C53162
:100DE000D10579F7DF91CF910C94F603CF93DF9380
:100DF000D0E0C0E080911B0390911C03C817D90775
:100E000030F420E040E060E0CE010E94FD00219639
:100E1000C431D10579F7DF91CF910C94F60310928C
:100E2000A3021092560280919D02811105C00E947A
:100E3000F60681E080939D02089583EC92E00E9483
:100E40000803892BD1F383EC92E00C94C602FC01D9
:100E500001900020E9F73197AF01481B590BBC0105
:100E600083EC92E00C948205CF93DF93EC018091A8
:100E7000130390911403009759F0209115033091BA
:100E800016032C173D0720F081E0DF91CF910895E4
:100E9000BE016F5F7F4F0E945816009789F09093B4
:100EA000140380931303D0931603C093150320916A
:100EB000170330911803232B39F7FC011082E4CF7C
:100EC00080E0E3CF0F931F93CF93DF9300D0CDB794
:100ED000DEB789831A8200911703109118030F5F00
:100EE0001F4FC8010E9434078823A1F020911303EB
:100EF000309114038091170390911803BE016F5F26
:100F00007F4F820F931F0E9427171093180300939F
:100F1000170381E00F900F90DF91CF911F910F91F8
:100F200008958F929F92AF92BF92CF92DF92EF92ED
:100F3000FF920F931F93CF93DF93CDB7DEB7ADB67C
:100F4000BEB6809180032DB73EB7281B31090FB67E
:100F5000F8943EBF0FBE2DBF8DB79EB701966C01B2
:100F6000E0904F03F12C80914B0390914C03D601FC
:100F7000FC019F01281B390B2E153F051CF4219104
:100F80002D93F7CF80915003882359F18091470327
:100F90009091480328E097FD09C068E671E00E943F
:100FA00005156DE270E00E940515262F809149031A
:100FB00090914A0368E097FD08C068E671E00E94DE
:100FC00005156DE270E00E940515F601EE0DFF1D9E
:100FD00090E1699FB0011124262B2083F7013196FF
:100FE0007F0186010E0D1F1D209155033091560380
:100FF0004091530350915403609131037091320337
:101000008091510381700E946801E80EF91E8601EB
:101010000E0D1F1D2091590330915A034091570323
:1010200050915803609133037091340380915103C0
:10103000869581700E946801E80EF91E86010E0DEA
:101040001F1D20915D0330915E0340915B03509121
:101050005C0360913503709136038091510382FBEC
:10106000882780F90E946801E80EF91E86010E0D9E
:101070001F1D209161033091620340915F035091E5
:10108000600360913703709138038091510383FBB3
:10109000882780F90E946801E80EF91E86010E0D6E
:1010A0001F1D2091650330916603409163035091A9
:1010B00064036091390370913A03809151038295E2
:1010C00081700E946801E80EF91E86010E0D1F1D39
:1010D0002091690330916A0340916703509168033E
:1010E00060913B0370913C038091510385FB8827FD
:1010F00080F90E946801E80EF91E86010E0D1F1D81
:1011000020916D0330916E0340916B0350916C03FD
:1011100060913F03709140038091520381700E945F
:101120006801E80EF91E86010E0D1F1D2091710346
:101130003091720340916F035091700360913D03B1
:1011400070913E0380915203869581700E946801E0
:10115000E80EF91E86010E0D1F1D209175033091BA
:101160007603409173035091740360914103709131
:1011700042038091520382FB882780F90E94680114
:10118000E80EF91E86010E0D1F1D20917903309186
:101190007A034091770350917803609143037091F3
:1011A00044038091520383FB882780F90E946801E1
:1011B0008E0D9F1D8601080F191F20917D03309110
:1011C0007E0340917B0350917C03609145037091B5
:1011D000460380915203829581700E9468010E94AB
:1011E0006B064C014091800380917F0350E07A01AF
:1011F000FFEFEF1AFF0A2DB73EB72E193F090FB6C2
:10120000F8943EBF0FBE2DBF0DB71EB70F5F1F4F27
:10121000EDB7FEB78183B601C80101960E9415178C
:10122000F4018381A701B80180640E94EC040FB629
:10123000F894BEBE0FBEADBEDF91CF911F910F914E
:10124000FF90EF90DF90CF90BF90AF909F908F90E6
:101250000895E82FE695E695E69520914B033091A9
:101260004C03E20FF32FF11D282F277081E090E04F
:10127000A0E0B0E004C0880F991FAA1FBB1F2A95E9
:10128000D2F7809590818923808380914D038111CD
:101290000C94910708958F929F92AF92BF92CF9234
:1012A000DF92EF92FF921F93CF93DF9381506150B3
:1012B000E62FF0E014E0819F90011124D901A75E90
:1012C000BE4FAE0FBF1F8C91D901AC55BD4FAE0FB5
:1012D000BF1F9C914091BD025091BE026091BF0220
:1012E0007091C002E901C450DE4FCE0FDF1FA8810C
:1012F000A91711F1D901AE0FBF1FAA0FBB1FAA0F6B
:10130000BB1FA455BE4FCD90DD90ED90FC90139780
:101310004A015B018C189D08AE08BF087501640185
:101320001AE1C116D104E104F10430F04D935D934C
:101330006D937C9313979883D901AE0FBF1FAA0FAB
:10134000BB1FAA0FBB1FA455BE4FCD90DD90ED90E3
:10135000FC904C195D096E097F094A315105610500
:10136000710530F0D901A450BE4FAE0FBF1F9C9342
:1013700090914E0324503E4FE20FF31F2081211124
:101380000FC08917D8F5DF91CF911F91FF90EF9093
:10139000DF90CF90BF90AF909F908F900C942909D1
:1013A000891760F5E82FE695E695E69520914B03C1
:1013B00030914C03E20FF32FF11D282F277081E0AD
:1013C00090E0A0E0B0E004C0880F991FAA1FBB1FE7
:1013D0002A95D2F72081822B808380914D03882328
:1013E00069F0DF91CF911F91FF90EF90DF90CF9048
:1013F000BF90AF909F908F900C949107DF91CF9109
:101400001F91FF90EF90DF90CF90BF90AF909F9093
:101410008F9008951F920F920FB60F9211248F9301
:101420009F938091E1009091E100937F9093E10080
:1014300083FF0FC01092E90091E09093EB001092AF
:10144000EC0092E39093ED001092C20298E090932A
:10145000F00082FF22C093E09093E9009091F200A7
:10146000992319F09AE39093E8009091A7019923AA
:1014700041F09091A70191509093A701911101C063
:101480005D9A9091C102992341F09091C1029150CF
:101490009093C102911101C0289A84FF18C08091D5
:1014A000E2008E7E81608093E2008091E1008F7E79
:1014B0008093E1008091A8018E7E80618093A801D5
:1014C0009F918F910F900FBE0F901F90189580FFE6
:1014D000F7CF8091E2008E7E80618093E200809160
:1014E000E1008E7E8093E1008091A8018E7E816074
:1014F000E5CF1F920F920FB60F921124CF92DF9279
:10150000EF92FF920F931F932F933F934F935F930D
:101510006F937F938F939F93AF93BF93EF93FF93BB
:10152000CF93DF93CDB7DEB76C97DEBFCDBF109200
:10153000E9008091E80083FF25C068E0CE01459670
:101540000E944E0282EF8093E8008D8987FF39C0A8
:101550009091E80090FFFCCF982F907609F034C16D
:101560009E894F89588D2F89F88C911131C0803810
:1015700061F58091A9018093F1001092F1008EEF46
:101580008093E8006C960FB6F894DEBF0FBECDBF17
:10159000DF91CF91FF91EF91BF91AF919F918F918B
:1015A0007F916F915F914F913F912F911F910F917B
:1015B000FF90EF90DF90CF900F900FBE0F901F9095
:1015C00018959EEF9093E800C7CF1092F100D5CF09
:1015D000913059F48111D3CF4130510581F680917A
:1015E000A9018D7F8093A901CACF933049F481115D
:1015F000C6CF4130510519F68091A9018260F2CF22
:10160000953041F48091E80080FFFCCF2068209362
:10161000E300B5CF963009F0A9C00B8D1C8D22E0F8
:101620001092E9001092A5011092A401F2122EC0AE
:101630001092A3011092A2010E946F021F8299E0F2
:101640009983FA8291E09E8390EA98879AEF99872E
:101650002091A4013091A501275F3F4F3C832B834C
:101660008D831092E9001092A5011092A4011093AD
:10167000A3010093A20149E050E0BE016F5F7F4FDC
:1016800080E00E9417020E946F0279CF1093A3019D
:101690000093A2010E945B02DC0112960D911C9145
:1016A0000115110509F451C1D801ED91FC91048097
:1016B000F581E02DBE016B5E7F4FC8010995009753
:1016C00009F03EC1F80100851185EACFF3E0FF1271
:1016D0000EC08F89882309F440C0823061F440E84D
:1016E0006EE089E191E00E94F50C811148CF81E222
:1016F0008093EB0047CF813029F440E866E082E137
:1017000091E0F1CF833099F70E945B02DC011296E1
:10171000ED90FC908E010F5F1F4F6801E114F10402
:1017200079F0D701ED91FC910680F781E02DB801A9
:10173000C7010995080F111DF701E084F184EECF70
:10174000D8011C92F60101900020E9F73197BF0102
:101750006C197D0940E0C601C6CF6CEF70E0FB015B
:10176000449150E080E80E94170209CF973009F4B5
:10177000BECF983021F481E08093F10000CF993002
:1017800009F0FDCE837009F0B2CFE1E0F1E081E035
:1017900031E096E32191222371F08093E9003093A8
:1017A000EB00DF0111972C912093EC009093ED005A
:1017B0008F5F873079F78EE78093EA001092EA0016
:1017C0008F898093C202DBCE8B8D9C8D1092E900B5
:1017D0001092A5011092A4019093A3018093A201FD
:1017E000898D811192C08E899D89913A49F4813207
:1017F00009F07DCF47E050E06BE071E080E0B3CFCF
:10180000913209F074CF833269F48F89988DB0E0FA
:10181000A0E08093070190930801A0930901B09381
:101820000A01ADCE803269F48091E80082FFFCCFDE
:1018300067E08BE091E00E944E028BEF8093E8001E
:101840009ECE823209F09BCE8F8980931201EEEFFB
:10185000FFE7859194918B3F9C4D51F1E0E0F8E0DA
:1018600080910B0190910C01A0910D01B0910E019E
:10187000803B9440A105B105F1F48091120180FDF7
:101880001AC0EE3F8AE0F80789F587E797E791836A
:101890008083809160008093A60188E19BE00FB671
:1018A000F894A895809360000FBE9093600067CE77
:1018B000EEEFFAE0D5CF808191818737974709F025
:1018C0005ECEA895809160008861809360008091D1
:1018D000A60180936000EE3F2AE0F20789F0809134
:1018E000FE0A9091FF0A9183808349CE8081918185
:1018F0008737980751F29093FF0A8093FE0AC5CF6D
:101900001092FF0A1092FE0A3ACE0E945B02DC019E
:1019100012960D911C910115110509F4E8CED8011C
:10192000ED91FC910190F081E02DBE016B5E7F4F47
:10193000C8010995811123CEF80100851185EBCFEF
:10194000181619060CF41BCED2CEF1E0FF12BECE53
:1019500060E071E004CF1F920F920FB60F92112436
:101960002F933F938F939F93AF93BF9380918E015B
:1019700090918F01A0919001B091910130918D01D2
:1019800023E0230F2D3758F50196A11DB11D20939B
:101990008D0180938E0190938F01A0939001B0935D
:1019A00091018091920190919301A0919401B09145
:1019B00095010196A11DB11D809392019093930111
:1019C000A0939401B0939501BF91AF919F918F9196
:1019D0003F912F910F900FBE0F901F90189526E802
:1019E000230F0296A11DB11DD2CFEF92FF920F934C
:1019F0001F93CF93DF93F82E192FE62E042F81E04B
:101A0000860F880F0E94E90183E00E94E901CF2D33
:101A1000D12FEC0EFD2EF11CCE15DF05B9F007FF1E
:101A200013C0FE0184910E94E901182F80E00E94FA
:101A3000E901812321968111EFCFDF91CF911F9191
:101A40000F91FF90EF9008958881EDCF81E0F5CF61
:101A5000EF92FF920F931F93CF93DF93CDB7DEB733
:101A6000C659D1090FB6F894DEBF0FBECDBF109294
:101A7000C6021092C50288EE93E0A0E0B0E0809329
:101A8000C7029093C802A093C902B093CA0286E429
:101A900091E09093C4028093C3028FEF9FEF9093E5
:101AA000D0028093CF0210924C0310924B031092FD
:101AB0004F0310925403109253038FEF93E09093CF
:101AC0005603809355031092580310925703909336
:101AD0005A038093590310925C0310925B03909316
:101AE0005E0380935D031092600310925F039093F6
:101AF00062038093610310926403109263039093D6
:101B000066038093650310926803109267039093B5
:101B10006A038093690310926C0310926B03909395
:101B20006E0380936D031092700310926F03909375
:101B30007203809371031092740310927303909355
:101B40007603809375031092780310927703909335
:101B50007A038093790310927C0310927B03909315
:101B60007E0380937D0373E070937F0324E12093D1
:101B70004E03109250038FE1809351038AE08093CB
:101B8000520335E0398391E09A8389E08B83F4E056
:101B9000FC83E1EAED839E8345E84F8378873987AC
:101BA0008A8749E14B879C8749E24D872E8745E12B
:101BB0004F87188A45E2498B9A8B65E76B8B9C8B24
:101BC00055E95D8B2E8B15E51F8B188E25E6298F29
:101BD0001A8E41E84B8F22E02C8F6D8F9E8F5F8F86
:101BE000F8A349A37AA33BA39CA38DA39EA376E16C
:101BF000E72EEFA298A7F0E8FF2EF9A606E20AA7C3
:101C0000BFEFBBA7AFE7ACA76DA7F0E1FEA75FA74B
:101C100038ABE9AB1AAA8BAB70E37CAB8DAB71E34D
:101C20007EAB8FAB72E378AF89AF73E37AAF8BAFE4
:101C300074E37CAF4DAF2EAF70EC7FAF21963FAF1A
:101C4000219722962FAF22972396EFAE23972496C3
:101C50009FAF24972596FFAE259726960FAF269720
:101C60002796BFAF27972896AFAF289729966FAFD3
:101C700029972A96FFAF2A972B965FAF2B972C9622
:101C80002FAF2C972D96EFAF2D972E961FAE2E9738
:101C90002F968FAF2F979BEB60969FAF60976196C3
:101CA0008FAF619785EC62968FAF629763964FAF67
:101CB000639764962FAF649765967FAF6597669636
:101CC0007FAF669785E590E00E9433157C01FE01A9
:101CD0003196DC0101900D921A95E1F787E090E0D2
:101CE0000E9433158C01DC0111961C921E921396F2
:101CF000FC92EE92129785E590E015969C938E9358
:101D0000149716961C920E946B06FC01A385B4855D
:101D1000109709F077C01487038785859685D801C9
:101D200014962D913C91820F931F968785879091F1
:101D30004E03892F869586958695977009F06AC01F
:101D400080934F0310914F03812F90E0009711F47F
:101D500081E090E00E94331590934C0380934B03F5
:101D600081E090915003911101C080E0125F810FDA
:101D70008093800310923203109231031092340347
:101D800010923303109236031092350310923803E9
:101D90001092370310923A031092390310923C03C9
:101DA00010923B0310923E0310923D0310924003A9
:101DB00010923F0310924203109241031092440389
:101DC0001092430310924603109245038FEF9FEF4A
:101DD000909348038093470390934A038093490369
:101DE00090E080E020914F0328171906A9F0A4F095
:101DF000E0914B03F0914C03E80FF91F108201961C
:101E0000F1CFDC018D919C9111970097D1F70D9343
:101E10001C9383CF8F5F94CF10921A0310922103EB
:101E2000109228031092290310922A0310922B0378
:101E300081E080932703809324031092250392E08E
:101E400090932603809319038CE390E090931E03F4
:101E500080931D030E9433159093230380932203E4
:101E6000009709F465C02CE3FC0111922A95E9F76B
:101E700084E190E090931C0380931B0382E090E048
:101E80009093200380931F0380911A03882339F0D5
:101E900061E082E00E94950382E00E946E03E4E824
:101EA000F1E0E491F0E0EE0FFF1FEC58FE4F85915A
:101EB000949190932F0380932E03E7E5F1E0E49152
:101EC000E093300310921403109213031092160340
:101ED00010921503109218031092170390E080E0FF
:101EE0000E9434072091130330911403811129C0FB
:101EF0002115310519F0C9010E94CF151092140364
:101F000010921303109218031092170310921603E5
:101F100010921503CA56DF4F0FB6F894DEBF0FBEFE
:101F2000CDBFDF91CF911F910F91FF90EF9008955A
:101F300010921E0310921D0310921C0310921B039B
:101F40009DCF109218031092170367E671E0C90144
:101F50000E942717DFCFCF93DF93CDB7DEB7A297CD
:101F60000FB6F894DEBF0FBECDBF789484B5826003
:101F700084BD84B5816084BD85B5826085BD85B52D
:101F8000816085BD80916E00816080936E001092AB
:101F90008100809181008260809381008091810026
:101FA00081608093810080918000816080938000B7
:101FB0008091910082608093910080919100816076
:101FC0008093910080919000816080939000809137
:101FD000C10084608093C1008091C10082608093C1
:101FE000C1008091C10081608093C1008091C300D5
:101FF00081608093C3008091C00082608093C000A4
:102000008091C20081608093C20080917A008460D8
:1020100080937A0080917A00826080937A00809128
:102020007A00816080937A0080917A008068809342
:102030007A001092C2021092A9011092A801809118
:10204000D70081608093D70080EA8093D80089B55B
:10205000806189BD89B5826089BD09B400FEFDCF6C
:102060000E94D4048091D8008F7C80618093D80036
:102070008091E000807F8093E0008091E1008E7E7F
:102080008093E1008DE08093E200559A209A8FEFD3
:102090009FEF9093D0028093CF021092540310923E
:1020A000530388EE93E09093560380935503109268
:1020B000700310926F0390937203809371031092D8
:1020C00078031092770390937A03809379034CEA14
:1020D00051E090E080E0FA0130E020E08C010C5506
:1020E0001D4FBC0164507E4FD801A20FB31F1C923C
:1020F000DB01A20FB31F1C92119211921192119247
:102100002F5F3F4F2430310579F7405F5F4F0496D2
:102110008431910501F709E311E0D8018D918D011A
:10212000833619F062E00E949503B1E00D331B077E
:10213000A1F702E411E0ADE32A2EA1E03A2EF1016D
:1021400081911F01833619F062E00E949503021508
:102150001305A9F710E080914E03181718F4812F8A
:102160000E9429091F5F1431B1F780911F039091DC
:10217000200397FF56C181E080931A0381E090E02D
:1021800090932D0380932C03809110029091110263
:10219000A0911202B09113020196A11DB11D80936E
:1021A000100290931102A0931202B09313020091B7
:1021B0008503109186032091870330918803409115
:1021C000890350918A0360918B0370918C0381E0A5
:1021D0004434FCE45F07F8E46F07F3E57F0709F098
:1021E00080E08093A2020834104525453D4431F03B
:1021F00011E044345C446844734509F410E048E459
:1022000050E565E57DE44093850350938603609334
:1022100087037093880380939D0210929E02109210
:102220009F021092A0021092A1020E949805685489
:10223000744F8F4F9F4F6093990270939A028093CF
:102240009B0290939C02112309F4F3C00E94DD06C7
:1022500010924D030E94910780E090E890936003F4
:1022600080935F038FEF9FE79093620380936103F6
:102270008091AA019091AB01866394609093AB0129
:102280008093AA018F5F9F47909338038093370311
:1022900080914D0381110E94910720E030E8309336
:1022A0005C0320935B038FEF9FE790935E03809323
:1022B0005D03309358032093570390935A03809300
:1022C0005903552453940E9498056B017C01C092D8
:1022D000BD02D092BE02E092BF02F092C002809195
:1022E000BC028F5F8093BC0200911002109111021A
:1022F00020911202309113028091140290911502E4
:10230000A0911602B091170246015701881A990A46
:10231000AA0ABB0A87E090E0A0E0B0E0801B910B26
:10232000A20BB30B88159905AA05BB05D8F46091DB
:10233000970270E06F5F7F4F072E000C880B990BA0
:10234000A90198012F5F3F4F4F4F5F4F0E94D41458
:1023500060939702C0921402D0921502E092160286
:10236000F09217028091570290915802A091590261
:10237000B0915A02A7019601281B390B4A0B5B0B3F
:10238000DA01C90181379741A105B10580F01092AA
:10239000A3028091A20290915602992309F44FC0A2
:1023A00010925602882309F447C00E940F0783EC5D
:1023B00092E00E940803892B09F49BC0C092570247
:1023C000D0925802E0925902F0925A02509256026C
:1023D00083EC92E00E94C602209154023091550293
:1023E0002630310544F48F3F71F52F5F3F4F309316
:1023F000550220935402209154023091550223300B
:1024000031050CF476C08F3F09F473C00E94620757
:1024100080911703909118030597D0F40E941D072F
:10242000F5CF61E00E94950380911F030E946E0327
:10243000A2CE0E94F6060CCF0E94DD06B8CF8823FC
:1024400009F4B5CFB2CF1092550210925402D3CFF7
:1024500064E571E080911303909114030E941E17AC
:10246000892B41F48AE591E00E94270785E691E0F7
:102470000E9427078091170390911803892BC9F0B8
:10248000009113031091140368E671E0C8010E94E3
:102490001E17892B09F02CC119A240E348A382E33F
:1024A0008F8FCE014F960E94270785E691E00E940C
:1024B000270790E080E00E943407209113033091B9
:1024C0001403811171C12115310519F0C9010E9450
:1024D000CF15109214031092130310921803109248
:1024E00017031092160310921503109255021092C2
:1024F000540280919D02882309F460C110929802D1
:102500008091A302882391F09091A20291110EC0B4
:1025100024E43CE448E453E52093890330938A03A0
:1025200040938B0350938C035092A2029091A2028D
:1025300091117FC110929E0210929F021092A002F0
:102540001092A10210929D021092BB021092BA0248
:102550001092B9021092B80224EAC22E22E0D22EC2
:102560003DE3E32E31E0F32ED7017D907D01B2E60D
:10257000B71508F446C061E0872D0E949503872DAA
:102580000E946E0399E3A92E91E0B92E01E010E0BC
:10259000F50121915F01233650F530E0F901EA5C45
:1025A000FE4F8491F901EB5AFE4F8490F901EE57EA
:1025B000FE4F9490992009F47BC181110E9422035F
:1025C000E92DF0E0EE0FFF1FE85DFE4FA591B491FD
:1025D000EC918E2231E020E009F430E0832F922F3D
:1025E000F8013197EC0DFD1D21E0822780830F5FFC
:1025F0001F4F0530110509F0CBCF62E0872D0E94F7
:10260000950334E0C30ED11C2E143F0409F0ACCF67
:1026100061E081E00E944B0962E081E00E944B0989
:1026200063E081E00E944B0964E081E00E944B0975
:1026300061E082E00E944B0962E082E00E944B0967
:1026400063E082E00E944B0964E082E00E944B0953
:1026500061E083E00E944B0962E083E00E944B0945
:1026600063E083E00E944B0964E083E00E944B0931
:1026700061E084E00E944B0962E084E00E944B0923
:1026800063E084E00E944B0964E084E00E944B090F
:1026900061E085E00E944B0962E085E00E944B0901
:1026A00063E085E00E944B0964E085E00E944B09ED
:1026B00041E050E8509336034093350380914D0339
:1026C00081110E94910781E090E8909334038093F8
:1026D000330380914D0381110E9491070E9491075D
:1026E000A0E0B0E0AB2B09F4EECD0E940000E9CDF4
:1026F0006EE671E0C8010E941E17892B09F0D9CE41
:1027000070E4E72E72E0F72EECE2CE2EE2E0DE2E51
:10271000F8E16F2EF2E07F2E5301460187010E94FF
:102720001D078AA30E941D07482E0E941D07D8017D
:10273000EAA1ED938D01D4014D924D01F5018193F4
:102740005F0124E532E02017310749F70E941D0799
:102750008F3F910509F0ADCE0E941D078E3F910578
:1027600009F0A7CE0E941D078D3F910509F0A1CE6B
:102770005092A30283E892E0AFE6B2E04BE552E06C
:10278000F70121917F01FC012193CF01F6012191F5
:102790006F012D93F30121913F01FA012193AF01C4
:1027A0000E151F0569F785CE1092180310921703B6
:1027B00067E671E0C9010E94271797CE90909702B3
:1027C00080909802992011F0882069F18091A302ED
:1027D000882331F143E8E42E42E0F42E5FE6C52E73
:1027E00052E0D52E6BE5A62E62E0B62E10E000E09A
:1027F000D7016D917D01F60141916F01D5012D91B8
:102800005D01E0911B03F0911C030E171F0718F4E4
:10281000C8010E94FD000F5F1F4F0431110541F7F1
:10282000811010929802B1E09B126ACE0E94F603CA
:1028300067CE81117FCE0E94980500919902109178
:102840009A0220919B0230919C02601771078207C7
:10285000930708F479CE80919E0290919F02A091F7
:10286000A002B091A102892B8A2B8B2B51F40E94DC
:10287000980560939E0270939F028093A0029093AC
:10288000A1020E94980500919E0210919F02209142
:10289000A0023091A102601B710B820B930B6B3F66
:1028A00071058105910508F44FCE0E940F074CCEAB
:1028B00090E080E095CE80911303909114030097EF
:1028C00011F00E94CF1580912203909123030E9462
:1028D000CF1580911F039091200397FD03C060E006
:1028E0000C9495030895052E97FB1EF400940E9406
:1028F0008A1457FD07D00E94D41407FC03D04EF46D
:102900000C948A1450954095309521953F4F4F4F28
:102910005F4F089590958095709561957F4F8F4F8B
:102920009F4F08950E94F614A59F900DB49F900D9F
:10293000A49F800D911D112408952F923F924F92D4
:102940005F926F927F928F929F92AF92BF92CF923F
:10295000DF92EF92FF920F931F93CF93DF93CDB748
:10296000DEB7CA1BDB0B0FB6F894DEBF0FBECDBFC0
:1029700009942A88398848885F846E847D848C8491
:102980009B84AA84B984C884DF80EE80FD800C819A
:102990001B81AA81B981CE0FD11D0FB6F894DEBF7D
:1029A0000FBECDBFED010895A1E21A2EAA1BBB1BDD
:1029B000FD010DC0AA1FBB1FEE1FFF1FA217B3070B
:1029C000E407F50720F0A21BB30BE40BF50B661F21
:1029D000771F881F991F1A9469F7609570958095E5
:1029E00090959B01AC01BD01CF010895A29FB0015C
:1029F000B39FC001A39F700D811D1124911DB29F33
:102A0000700D811D1124911D089597FB072E16F45A
:102A1000009407D077FD09D00E941F1507FC05D050
:102A20003EF4909581959F4F0895709561957F4FE5
:102A30000895EE0FFF1F0590F491E02D0994AA1B55
:102A4000BB1B51E107C0AA1FBB1FA617B70710F099
:102A5000A61BB70B881F991F5A95A9F780959095CB
:102A6000BC01CD0108950F931F93CF93DF93823064
:102A7000910510F482E090E0E0918303F0918403EB
:102A800030E020E0B0E0A0E0309799F42115310566
:102A900009F44AC0281B390B24303105D8F58A8146
:102AA0009B816115710589F1FB0193838283FE018E
:102AB00011C0408151810281138148175907E0F00C
:102AC0004817590799F4109761F012960C931297D2
:102AD00013961C933296CF01DF91CF911F910F91E6
:102AE00008950093830310938403F4CF21153105D7
:102AF00051F04217530738F0A901DB019A01BD01DB
:102B0000DF01F801C1CFEF01F9CF909384038093E7
:102B10008303CDCFFE01E20FF31F819391932250E7
:102B2000310939832883D7CF2091810330918203E3
:102B3000232B41F42091150130911601309382032B
:102B40002093810320911301309114012115310547
:102B500041F42DB73EB74091170150911801241B45
:102B6000350BE0918103F0918203E217F307A0F4A3
:102B70002E1B3F0B2817390778F0AC014E5F5F4FD3
:102B80002417350748F04E0F5F1F50938203409380
:102B90008103819391939FCFF0E0E0E09CCFCF93AE
:102BA000DF930097E9F0FC01329713821282A09123
:102BB0008303B0918403ED0130E020E01097A1F48D
:102BC00020813181820F931F2091810330918203F4
:102BD0002817390709F061C0F0938203E09381035D
:102BE000DF91CF910895EA01CE17DF07E8F54A811A
:102BF0005B819E0141155105B1F7E901FB83EA8331
:102C000049915991C40FD51FEC17FD0761F48081DC
:102C100091810296840F951FE901998388838281AF
:102C200093819B838A83F0E0E0E012968D919C91E2
:102C300013970097B9F52D913C911197CD0102960C
:102C4000820F931F20918103309182032817390747
:102C500039F6309751F51092840310928303B093A4
:102C60008203A0938103BCCFD383C283408151816F
:102C7000840F951FC817D90761F44E5F5F4F888195
:102C80009981480F591F518340838A819B81938387
:102C900082832115310509F0B0CFF0938403E093CE
:102CA00083039ECFFD01DC01C0CF13821282D7CFF8
:102CB000B0E0A0E0EEE5F6E10C949F148C010097E3
:102CC00051F4CB010E9433158C01C801CDB7DEB79A
:102CD000E0E10C94BB14FC01E60FF71F9C012250AD
:102CE0003109E217F30708F49DC0D901CD91DC91B9
:102CF0001197C617D70798F0C530D10530F3CE012C
:102D000004978617970708F3C61BD70B2297C19322
:102D1000D1936D937C93CF010E94CF15D6CF5B01E9
:102D2000AC1ABD0A4C018C0E9D1EA0918303B0917C
:102D30008403512C412CF12CE12C109731F580911A
:102D40008103909182038815990509F05CC04616AD
:102D5000570608F058C08091130190911401009714
:102D600041F48DB79EB74091170150911801841B13
:102D7000950BE817F90708F055C0F0938203E0932C
:102D80008103F90171836083A0CF8D919C9111978C
:102D900012966C90129713967C901397A815B9050C
:102DA00059F56C0142E0C40ED11CCA14DB0420F1B9
:102DB000AC014A195B09DA011296159780F062821C
:102DC000738251834083D9016D937C93E114F104A4
:102DD00071F0D7011396FC93EE93129776CF22965B
:102DE0008C0F9D1FF90191838083F301EFCFF09346
:102DF0008403E093830369CF4816590608F42C0135
:102E00007D01D3019ACFCB010E9433157C0100973D
:102E100049F0AE01B8010E941517C8010E94CF15F4
:102E2000870153CF10E000E050CFFB01DC0102C06E
:102E300001900D9241505040D8F70895FB01DC01FC
:102E40008D91019080190110D9F3990B0895FB0120
:102E5000DC0101900D920020E1F7089510E0C2ED31
:102E6000D0E004C0FE010E9419152196C33DD10790
:062E7000C9F7F894FFCF42
:102E760000C18081000000FFFFFFFF00E1000000AD
:102E860000000000008D038000131211100F0E0DBC
:102E96000C0B0A09080706050403020100000000DE
:102EA60000A4052006E205C70506050403100A0965
:102EB600080700000000A0028205C102B60208034E
:102EC600C602E40270726F746F0053494D48554252
:102ED6005F312E30000D0A006C6564736300736CFD
:042EE60065647300AC
:00000001FF
