:100000000C94D2000C94FA000C94FA000C94FA00B0
:100010000C94FA000C94FA000C94FA000C94FA0078
:100020000C94FA000C94FA000C94520D0C94C10D2F
:100030000C94FA000C94FA000C94FA000C94FA0058
:100040000C94FA000C94FA000C94FA000C94FA0048
:100050000C94FA000C94FA000C94FA000C94F30F30
:100060000C94FA000C94FA000C94FA000C94FA0028
:100070000C94FA000C94FA000C94FA000C94FA0018
:100080000C94FA000C94FA000C94FA000C94FA0008
:100090000C94FA000C94FA000C94FA000C94FA00F8
:1000A0000C94FA000C94FA000C94FA000000000082
:1000B000240027002A002D003000080B0002020255
:1000C00000000904000001020200000524001001E4
:1000D0000524010101042402060524060001070588
:1000E000810310004009040100020A000000070516
:1000F00002024000000705830240000004030904D7
:1001000012010002EF0201406F355D28000101027B
:100110000301417574686F72004D552D50616E6515
:100120006C41706578320000000000230026002931
:10013000002C002F000000000200090F0000030443
:1001400001000C00000000000000000000000000A2
:100150000000000004080201104080401020408090
:10016000408008020401804020100201108010200D
:1001700040402000000000250028002B002E003108
:10018000000404040404030405020202020403023E
:10019000020202060606060606040402020204041F
:1001A0007010F71611241FBECFEFDAE0DEBFCDBF0F
:1001B00011E0A0E0B1E0E6E0F5E302C005900D92A9
:1001C000A837B107D9F723E0A8E7B1E001C01D9235
:1001D000AF37B207E1F710E0C1EDD0E004C02197DE
:1001E000FE010E946118C03DD107C9F70E94F312B9
:1001F0000C94761A0C940000CF93DF93FC0190913D
:100200001B03992361F0699FB0011124672F949F0C
:10021000A0011124452F929F90011124232F30918A
:10022000210380911C0390911D0350911E033513EF
:1002300043C0DF01AA0FBB1FEA0FFB1F8E0F9F1FDA
:10024000C0911E03C80FD92FD11DE881E627A091C8
:100250002603B0912703AE0FB11DB0932703A093DF
:100260002603E0911F03E80FF92FF11DE081E42739
:10027000EA0FFB2FF11DF0932703E0932603A091D3
:100280002003A80FB92FB11D3C913227E30FF11DB8
:10029000F0932703E09326036883E0911F03E80FA0
:1002A000F92FF11D408330912003830F911DFC0134
:1002B0002083DF91CF910895EE0FFF1FEE0FFF1FF8
:1002C0008E0F9F1FFC01E30FF11D1082B9CFCF925B
:1002D000DF92EF92FF920F931F93CF93DF93D90199
:1002E000E8016A01F9014217530714F06901FA01A4
:1002F000882309F440C0CB016C157D050CF4C601C0
:100300009F018E179F070CF49C01A417B50734F4C6
:10031000CF01821B930B9C012C0D3D1D0D2C000C5D
:10032000EE08FF08032E000C440B550B2C193D0959
:100330004E095F09AEEFBFEF0E94D2179F01FF0F7A
:10034000440B550B2C193D094E095F090E94B31748
:10035000DA01C9018F5F9F47A109B1098883998399
:1003600082E090E0DF91CF911F910F91FF90EF908D
:10037000DF90CF90089590E080E0F4CFFC01809171
:10038000BC02882311F13FB7F89482E08093E90022
:100390002091F200822F90E01816190614F481E0E3
:1003A00090E0882339F0289844E64093BB024091BE
:1003B000F1004083222339F02091F200211103C083
:1003C0002BE62093E8003FBF08958FEF9FEF08953D
:1003D0004091A4015091A5012091A2013091A30167
:1003E00042175307B4F49091E8009570E1F39091AF
:1003F000E80092FD19C08093F1008091A4019091D2
:10040000A50101968F739927892B19F48EEF80939C
:10041000E8008091A4019091A50101969093A50117
:100420008093A40181E0089580E00895DF92EF9227
:10043000FF920F931F93CF93DF93D82E8A01EB0186
:100440007B01E40EF51ECE15DF0559F0D7FE12C074
:10045000FE0184910E94E80121968111F4CF0FEFF3
:100460001FEFC801DF91CF911F910F91FF90EF9087
:10047000DF9008958881EECF2FB7F894877080932E
:10048000E9009091E800892F807295FF04C0909157
:10049000F20080E4891B2FBF0895615030F0209155
:1004A000F100FC0120830196F8CF289884E6809320
:1004B000BB02089580919A0181110DC082E0809362
:1004C000960184E08093970110929901109298010F
:1004D00081E080939A0186E991E008950F931F933C
:1004E000CF93DF931F92CDB7DEB782E0898342E4DA
:1004F00050E06AEB70E080E80E9416020E945A0207
:10050000DC0112960D911C910115110589F0D8019D
:10051000ED91FC910280F381E02DBE016F5F7F4F72
:10052000C801099597FD04C0F80100851185ECCF3D
:1005300089810F90DF91CF911F910F910895CF93F3
:10054000DF931F92CDB7DEB76983DC01ED91FC919B
:100550000280F381E02D41E050E0BE016F5F7F4FEC
:1005600009950F90DF91CF91089583E08093E90082
:100570008091F200882319F08AE38093E8000895BF
:1005800083E00E943C0290E00895CF93DF931F9296
:10059000CDB7DEB7FC018485958597FD08C02FEFA8
:1005A0003FEF358724870F90DF91CF910895CE01DB
:1005B00001960E94BE01019719F4898190E0F3CF62
:1005C0008FEF9FEFF0CF0F931F93CF93DF931F9287
:1005D000CDB7DEB78C01FC018485958597FF0BC0F4
:1005E000CE0101960E94BE01019771F4898190E0CD
:1005F000F80195878487F801848595850F90DF91B0
:10060000CF911F910F9108958FEF9FEFF1CFFC01D4
:100610008485958597FD0BC09FB7F89482E0809301
:10062000E9008091F2009FBF90E0019608959FB786
:10063000F89482E08093E9008091F2009FBF90E0FF
:10064000089581508F3008F047C0E82FF0E0E55D55
:10065000FC4F0C94611848034C033A0340034403D5
:100660006C036C036C034F03550359035D03630371
:100670006C036703809180008F77809380000895DA
:10068000809180008F7DF9CF80918000877FF5CFAA
:1006900084B58F7784BD089584B58F7DFBCF80911D
:1006A00090008F77809390000895809190008F7DC7
:1006B000F9CF80919000877FF5CF8091C0008F7730
:1006C0008093C00008958091C0008F7DF9CF809104
:1006D000C200877F8093C2000895CF93DF93282FB5
:1006E00030E0F901EB5CFE4F8491F901EC5AFE4FCA
:1006F000D491F901EF57FE4FC491CC2391F08111B1
:100700000E942103EC2FF0E0EE0FFF1FED58FE4F8B
:10071000A591B4918FB7F894EC91D095DE23DC933A
:100720008FBFDF91CF910895CF93DF9390E0FC01CD
:10073000EC5AFE4F24918F579E4FFC0184918823E1
:10074000C9F090E0880F991FFC01E455FF4FA59177
:10075000B491FC01ED58FE4FC591D49161110DC0CB
:100760009FB7F8948C91209582238C9388812823BD
:1007700028839FBFDF91CF910895623051F49FB7D6
:10078000F8943C91822F809583238C93E8812E2BC3
:10079000EFCF8FB7F894EC912E2B2C938FBFEACF2D
:1007A0003FB7F8948091920190919301A0919401A8
:1007B000B091950126B5A89B05C02F3F19F0019671
:1007C000A11DB11D3FBFBA2FA92F982F8827BC01AB
:1007D000CD01620F711D811D911D42E0660F771FD3
:1007E000881F991F4A95D1F708950F931F93CF93B0
:1007F000DF93CDB7DEB729970FB6F894DEBF0FBEF3
:10080000CDBF10922703109226030E94D0030091BF
:1008100022031091230320912403309125036017B4
:1008200071078207930740F46093220370932303B8
:1008300080932403909325030091220310912303B6
:100840002091240330912503601B710B820B930BC5
:100850006C32714081059105C0F2F89480911703C4
:10086000909118039A838983E0911C03F0911D03F2
:10087000DF0111968081898790911303E09128030D
:10088000F091290380912A03992309F445C09081AE
:10089000982B98879081809589238F838F818C8373
:1008A00088E08B8358856F8149853B812C818981C4
:1008B0009A81508347FD252F3A952083262F39F0C2
:1008C000441F00C000006083000000C0F2CF38E089
:1008D0004D9160830000019761F7F0932903E09345
:1008E000280349873B832C839A83898378940E94C9
:1008F000D003609322037093230380932403909387
:10090000250329960FB6F894DEBF0FBECDBFDF9149
:10091000CF911F910F9108959081982B9887908186
:10092000809589238F838F818E8388E08D8358857E
:100930006F8149853D812E8189819A81508347FD50
:10094000252F00C000C0208300C000C000C000C030
:1009500000C060830000262F3A9541F0441F00003C
:1009600000C000C000C000C000C0E8CF38E04D911A
:1009700000C0608300C0019709F7F0932903E0935A
:10098000280349873D832E83AFCF8F929F92AF92EA
:10099000BF92CF92DF92EF92FF926B017C010E9497
:1009A000D0034B015C01C114D104E104F104B9F09E
:1009B0000E94D003681979098A099B09683E73402F
:1009C0008105910580F321E0C21AD108E108F10800
:1009D00088EE880E83E0981EA11CB11CE4CFFF9026
:1009E000EF90DF90CF90BF90AF909F908F90089541
:1009F0007F928F929F92AF92BF92CF92DF92EF92AF
:100A0000FF920F931F93CF93DF93C82E8B017A0130
:100A10008091BC02811110C08FEF9FEFDF91CF91C9
:100A20001F910F91FF90EF90DF90CF90BF90AF900C
:100A30009F908F907F9008958091A80180FF05C0BE
:100A40008091E00082608093E000CE2DDF2DD12CDC
:100A50008AEFB82E8C2D8770982E8C2D8072882E60
:100A60008C2D8074782E9AE3A92E209719F4DD201E
:100A700009F452C08C2D0E943C0281110AC0BA9424
:100A8000BB2051F261E070E080E090E00E94C5047C
:100A9000ECCF8C171D0611F00CF08C2F9FB7F8943B
:100AA0009092E9002091E80025FD02C09FBFDDCFB4
:100AB000282F30E0C21BD30B882029F08150A0F0F2
:100AC0001092F100FBCFF801C7FC0AC0815050F032
:100AD00041914093F100FACF44914093F100319657
:100AE0008150D0F7020F131FDD2021F0A092E80003
:100AF000D12CDCCF8091E80085FD07C0A092E800F2
:100B0000DD24D394209791F2F3CF209779F67720C4
:100B100069F2A092E800CACF5D9884E68093A701AD
:100B2000C7017CCFCF93DF93EC0180911201882322
:100B300031F083E00E94F8041816190634F081E0C1
:100B400090E09B838A8380E090E0DF91CF910895CD
:100B5000DC01FB0112962C91129784819581281754
:100B6000190641F491818081813A31F49D7F81E0C1
:100B7000913009F080E008958132E1F79B3029F44B
:100B800082811F968C9381E008959A3099F7828133
:100B900050968C93F8CFDC01FB0188E4808389E4D4
:100BA000818384E482831D969C911D979F709F5B37
:100BB00093831D968D919C9124E0969587952A9517
:100BC000E1F78F708F5B848385E00895EF92FF9249
:100BD0000F931F93CF93DF93FB012081213889F579
:100BE0002381223271F5DC0112964C9124813581EA
:100BF0004217130631F58C01FC01C385D485F12C15
:100C0000E12C209791F04C815D816A817B818E81FE
:100C1000811180E80E9416028F3F980759F0E80E74
:100C2000F91E0990D881C02DECCF81E0D8011F9624
:100C30008C93C701DF91CF911F910F91FF90EF909F
:100C4000089590E080E0F6CFCF93DF93CDB7DEB785
:100C500069970FB6F894DEBF0FBECDBFFC01DB0174
:100C60008C918F5F8C939E012D5F3F4F8DE0D9015A
:100C70001D928A95E9F729E0298384E08A8391E02F
:100C80009D8383E08E832A8721E22B879C879D8723
:100C90009F8722E2288B27E02B8B25E02C8B8E8BE5
:100CA00020E430E0388F2F8B998F82818B8395855C
:100CB0008685998B8A8B838180688D8B49E150E092
:100CC000BE016F5F7F4F80E00E94160269960FB6EB
:100CD000F894DEBF0FBECDBFDF91CF910895CF93C3
:100CE000DF9380918901811167C081E080937C014D
:100CF00080937D0122E831E030937F0120937E01D3
:100D0000109281011092800125E331E03093790146
:100D10002093780110928401109283011092860131
:100D200010928501809387018093880181EC8093E4
:100D300082010E945A02FC01818190917C01482F1E
:100D4000490F5527551F483051059CF5A281B381A5
:100D5000109709F528E731E033832283208120931F
:100D60007A0180937B0180917D01820F80832091A5
:100D70007E01A22FB0917F018A2F821B8917C8F4B0
:100D800081813D91C82FD0E0C050DF4F38838F5F05
:100D90008183F2CFD90118962D913C911997211595
:100DA0003105C1F728E731E019963C932E93189747
:100DB000D5CF81E08093890188E791E0DF91CF91E1
:100DC000089580911C0390911D03892B41F080911F
:100DD000260390912703892B11F00C94F5030895B5
:100DE0000F931F9360E073E00E944D188C018F3FBA
:100DF000910509F0D4F46FEF70E0681B790B072EB2
:100E0000000C880B990BCB0177276627012E000C6D
:100E1000220B330B322F212F102F0027602B712B29
:100E2000822B932B1F910F9108958115924094F47A
:100E30001A956FEF70E0601B710B072E000C880B8A
:100E4000990B982F872F762F6627012E000C220BE7
:100E5000330BE4CF1250B801012E000C880B990B14
:100E6000CB01772766272FEF30E0A901401B510BFC
:100E70008A01EBCF9F92AF92BF92CF92DF92EF9217
:100E8000FF920F931F93CF93DF93C82FB62E690164
:100E90007A0110E0409FC001419F900D1124E4E6CB
:100EA000F0E0BF010E944D1829E1269FC001279F55
:100EB000900D1124BF010E944D18A62EBB27AF2D07
:100EC0009E2D8D2D9927809FA001819F500D909F71
:100ED000500D1124CA01BF010E944D18269FC00168
:100EE000279F900D1124BF010E944D18962EDD24DE
:100EF000C09EC001C19E900DD09E900D1124BF01D7
:100F00000E944D18269FC001279F900D1124BF01FC
:100F10000E944D18F62ED0E00B2D10E00C171D0787
:100F20007CF08091150390911603C817D90730F40F
:100F30002F2D492D6A2DCE010E94FC002196EECF67
:100F4000DF91CF911F910F91FF90EF90DF90CF90A5
:100F5000BF90AF909F9008950F93CF93DF93D82FBA
:100F6000C0E00D2F2FEF3FEF4FEF50E06C2F8C2F95
:100F70000E943A07CF5FC431A1F7DF91CF910F9163
:100F80000C94E1060F938431910530F4022F9A01FD
:100F9000AB01682F0E943A070F9108950F93CF93EA
:100FA000C0E000E020E030E0A9016C2F8C2F0E940F
:100FB0003A07CF5FC431A9F7CF910F9108958DEB18
:100FC00092E00E940703892BD1F38DEB92E00C9401
:100FD000C502FC0101900020E9F73197AF01481BE1
:100FE000590BBC018DEB92E00C949205CF93DF93EB
:100FF000EC0180910D0390910E03009759F0209120
:101000000F03309110032C173D0720F081E0DF9192
:10101000CF910895BE016F5F7F4F0E94A019009786
:1010200089F090930E0380930D03D0931003C09327
:101030000F032091110330911203232B39F7FC0188
:101040001082E4CF80E0E3CF0F931F93CF93DF9321
:1010500000D0CDB7DEB789831A82009111031091B9
:1010600012030F5F1F4FC8010E94F6078823A1F0EB
:1010700020910D0330910E03809111039091120382
:10108000BE016F5F7F4F820F931F0E946F1A1093F4
:1010900012030093110381E00F900F90DF91CF9125
:1010A0001F910F9108958F929F92AF92BF92CF920E
:1010B000DF92EF92FF920F931F93CF93DF93CDB701
:1010C000DEB7ADB6BEB680917A032DB73EB7281B0A
:1010D00031090FB6F8943EBF0FBE2DBF8DB79EB736
:1010E00001966C01E0904903F12C809145039091A9
:1010F0004603D601FC019F01281B390B2E153F0525
:101100001CF421912D93F7CF80914A03882359F144
:10111000809141039091420328E097FD09C068E661
:1011200071E00E944D186DE270E00E944D18262F6C
:10113000809143039091440368E097FD08C068E6FE
:1011400071E00E944D186DE270E00E944D18F601AA
:10115000EE0DFF1D90E1699FB0011124262B208325
:10116000F70131967F0186010E0D1F1D20914F035F
:101170003091500340914D0350914E0360912B03E9
:1011800070912C0380914B0381700E946701E80EDF
:10119000F91E86010E0D1F1D20915303309154033B
:1011A000409151035091520360912D0370912E0391
:1011B00080914B03869581700E946701E80EF91EAD
:1011C00086010E0D1F1D2091570330915803409149
:1011D00055035091560360912F0370913003809115
:1011E0004B0382FB882780F90E946701E80EF91EF5
:1011F00086010E0D1F1D20915B0330915C03409111
:10120000590350915A0360913103709132038091D8
:101210004B0383FB882780F90E946701E80EF91EC3
:1012200086010E0D1F1D20915F03309160034091D8
:101230005D0350915E03609133037091340380919C
:101240004B03829581700E946701E80EF91E8601AA
:101250000E0D1F1D209163033091640340916103C3
:1012600050916203609135037091360380914B0376
:1012700085FB882780F90E946701E80EF91E860128
:101280000E0D1F1D20916703309168034091650387
:10129000509166036091390370913A0380914C0339
:1012A00081700E946701E80EF91E86010E0D1F1D58
:1012B00020916B0330916C034091690350916A0354
:1012C000609137037091380380914C03869581704B
:1012D0000E946701E80EF91E86010E0D1F1D209168
:1012E0006F033091700340916D0350916E036091D4
:1012F0003B0370913C0380914C0382FB882780F96B
:101300000E946701E80EF91E86010E0D1F1D209137
:101310007303309174034091710350917203609193
:101320003D0370913E0380914C0383FB882780F935
:101330000E9467018E0D9F1D8601080F191F2091C5
:101340007703309178034091750350917603609153
:101350003F037091400380914C03829581700E94FD
:1013600067010E946F064C0140917A0380917903D6
:1013700050E07A01FFEFEF1AFF0A2DB73EB72E19A2
:101380003F090FB6F8943EBF0FBE2DBF0DB71EB775
:101390000F5F1F4FEDB7FEB78183B601C8010196FD
:1013A0000E945D1AF4018381A701B80180640E9444
:1013B000F8040FB6F894BEBE0FBEADBEDF91CF915C
:1013C0001F910F91FF90EF90DF90CF90BF90AF9063
:1013D0009F908F900895E82FE695E695E6952091E9
:1013E000450330914603E20FF32FF11D282F27709C
:1013F00081E090E0A0E0B0E004C0880F991FAA1F30
:10140000BB1F2A95D2F78095908189238083809194
:10141000470381110C94530808958F929F92AF92C5
:10142000BF92CF92DF92EF92FF921F93CF93DF9301
:1014300081506150E62FF0E014E0819F900111246B
:10144000D901A35EBE4FAE0FBF1F8C91D901A2562A
:10145000BD4FAE0FBF1F9C914091B7025091B80293
:101460006091B9027091BA02E901C450DE4FCE0F0B
:10147000DF1FA881A91711F1D901AE0FBF1FAA0F55
:10148000BB1FAA0FBB1FA455BE4FCD90DD90ED90A2
:10149000FC9013974A015B018C189D08AE08BF08A9
:1014A000750164011AE1C116D104E104F10430F0C0
:1014B0004D935D936D937C9313979883D901AE0FF1
:1014C000BF1FAA0FBB1FAA0FBB1FA455BE4FCD90B5
:1014D000DD90ED90FC904C195D096E097F094A3151
:1014E00051056105710530F0D901A450BE4FAE0F12
:1014F000BF1F9C939091480324503E4FE20FF31F6F
:10150000208121110FC08917D8F5DF91CF911F914C
:10151000FF90EF90DF90CF90BF90AF909F908F9013
:101520000C94EB09891760F5E82FE695E695E695AA
:101530002091450330914603E20FF32FF11D282F30
:10154000277081E090E0A0E0B0E004C0880F991F10
:10155000AA1FBB1F2A95D2F72081822B80838091FE
:101560004703882369F0DF91CF911F91FF90EF909F
:10157000DF90CF90BF90AF909F908F900C945308C6
:10158000DF91CF911F91FF90EF90DF90CF90BF90B0
:10159000AF909F908F9008952F923F924F925F92BD
:1015A0006F927F928F929F92AF92BF92CF92DF9273
:1015B000EF92FF920F931F93CF93DF93CDB7DEB7D8
:1015C000CC58D1090FB6F894DEBF0FBECDBF0E9434
:1015D000CE070E94E10668EC70E080E090E00E9497
:1015E000C50410E000E00E94CE0720E530E04FEF98
:1015F0005FEF6FEF70E0C8010E94C2070E94E10632
:1016000060EA70E080E090E00E94C5040F5F1F4F29
:101610000431110541F70E94CE070E94E10668E7F8
:1016200070E080E090E00E94C50400E813EF312CE8
:10163000212CF9EDEF2EFF24FA94A7E2CA2ED12C2B
:1016400088E2281631040CF026C2C8018058934F56
:10165000B6010E944D18CB010E94AC076CE070E00F
:1016600080E090E00E94C5049FEF291A390A005BD0
:101670001F4FA0E52A16310419F70E94CE070E94D9
:10168000E10668E770E080E090E00E94C504F12C7C
:10169000E12C0BE010E00E94CE07C7010E94F0068B
:1016A0002B013C01C7018C5F9E4F0E94F0064B014D
:1016B0005C016801B1E0CB1AD10820E530E0B3014C
:1016C000A201C6010E94C2072CE230E0B301A201D0
:1016D000C8010E94C20724E130E0B301A201C801A1
:1016E00001960E94C20720E530E0B501A40186E121
:1016F00090E0801B910B0E94C2072CE230E0B50104
:10170000A40185E190E0801B910B0E94C20724E1B7
:1017100030E0B501A40184E190E0801B910B0E94B0
:10172000C2070E94E10660EA70E080E090E00E945B
:10173000C5048601E6E4EE0EF11CCD2809F0ABCF1E
:101740000E94CE070E94E10668E770E080E090E02A
:101750000E94C504E4E04E2E512C0E945B1725E048
:1017600030E040E050E00E94B3176A5F7F4F8F4F38
:101770009F4F3B01CE0101967C01DE01AF5ABF4F66
:101780006D0110E000E00E945B1724E130E040E0D2
:1017900050E00E94B317F601619371936F010E94AC
:1017A0005B1720E033E040E050E00E94B317CB012C
:1017B0000E94F006D7016D937D938D939D937D01DB
:1017C0000F5F1F4F06151705F4F210E000E00E94AE
:1017D000CE07C80167E270E00E944D184B01FE0180
:1017E000EF5AFF4F6F01CE0101965C01F12CE12C05
:1017F000D5014D915D916D917D915D019401F60151
:10180000819191916F010E94C207FFEFEF1AFF0AC9
:10181000E614F7046CF30E94E10667E070E080E0F4
:1018200090E00E94C504005B1F4F00388CE0180751
:1018300071F600E31CE00E94CE07C80167E270E089
:101840000E944D184B01DE01AF5ABF4F6D01FE01E2
:1018500031965F01F12CE12CD5014D915D916D9197
:101860007D915D019401F601819191916F010E943A
:10187000C207FFEFEF1AFF0AE614F7046CF30E94A9
:10188000E10667E070E080E090E00E94C50400554A
:101890001109003B8FEF180771F691E0491A5108C2
:1018A00009F05BCFDE01AF5ABF4F7D016D01CE0164
:1018B00001965C0198964D0110E000E0412C73E028
:1018C000572E612C712CF40111924F010E945B176D
:1018D000A30192010E94B317CB010E94F006D5012B
:1018E0006D937D938D939D935D01F601019311930B
:1018F0006F010F5F1F4F0431110529F751E5C52E08
:10190000D12CCC0EDD1EF8E2CF0ED11C8E010F5A69
:101910001F4F64E1862E912CA12CB12C0E945B17E5
:10192000A50194010E94B317D8012D913D918D011D
:10193000660F771FA1E5B0E0AC0FBD1FA60FB71F64
:101940008D919C911197F8013297918380832D930B
:101950003C930C151D0511F7992493949AE5492E93
:10196000512C612C712CD701ED91FD917D0189E7FE
:1019700090E08C0F9D1FE80FF91F90820E94CE0708
:10198000DE01A758BF4F5D01D12CC12CF50181911B
:101990005F018823A1F0F601EE0FFF1FEE0FFF1F7E
:1019A00081E090E08C0F9D1FE80FF91F408151816D
:1019B0006281738120E530E0C6010E94C2079FEF7B
:1019C000C91AD90AA4E1CA16D10401F70E94E10696
:1019D0000E945B17A30192010E94B317625E7F4FC2
:1019E0008F4F9F4F0E94C5040E151F0509F0BBCFF6
:1019F00064EB70E080E090E00E94C504FE01319647
:101A00007F0110E000E0D7014D915D916D917D91D6
:101A10007D019101C8010E94C2070F5F1F4F043171
:101A2000110589F70E94E1066CE070E080E090E02B
:101A30000E94C504B1E02B1A310800F710E000E065
:101A4000C8010E94AC0766E070E080E090E00E9470
:101A5000C5040F5F1F4F0135110591F780E590E038
:101A6000C457DF4F0FB6F894DEBF0FBECDBFDF9176
:101A7000CF911F910F91FF90EF90DF90CF90BF908B
:101A8000AF909F908F907F906F905F904F903F901E
:101A90002F900C94AC07C801B7010E944D18605BF1
:101AA0007F4FD9CD1F920F920FB60F9211248F93B3
:101AB0009F938091E1009091E100937F9093E100EA
:101AC00083FF0FC01092E90091E09093EB00109219
:101AD000EC0092E39093ED001092BC0298E090939A
:101AE000F00082FF22C093E09093E9009091F20011
:101AF000992319F09AE39093E8009091A701992314
:101B000041F09091A70191509093A701911101C0CC
:101B10005D9A9091BB02992341F09091BB02915044
:101B20009093BB02911101C0289A84FF18C0809144
:101B3000E2008E7E81608093E2008091E1008F7EE2
:101B40008093E1008091A8018E7E80618093A8013E
:101B50009F918F910F900FBE0F901F90189580FF4F
:101B6000F7CF8091E2008E7E80618093E2008091C9
:101B7000E1008E7E8093E1008091A8018E7E8160DD
:101B8000E5CF1F920F920FB60F921124CF92DF92E2
:101B9000EF92FF920F931F932F933F934F935F9377
:101BA0006F937F938F939F93AF93BF93EF93FF9325
:101BB000CF93DF93CDB7DEB76C97DEBFCDBF10926A
:101BC000E9008091E80083FF25C068E0CE014596DA
:101BD0000E944D0282EF8093E8008D8987FF39C013
:101BE0009091E80090FFFCCF982F907609F034C1D7
:101BF0009E894F89588D2F89F88C911131C080387A
:101C000061F58091A9018093F1001092F1008EEFAF
:101C10008093E8006C960FB6F894DEBF0FBECDBF80
:101C2000DF91CF91FF91EF91BF91AF919F918F91F4
:101C30007F916F915F914F913F912F911F910F91E4
:101C4000FF90EF90DF90CF900F900FBE0F901F90FE
:101C500018959EEF9093E800C7CF1092F100D5CF72
:101C6000913059F48111D3CF4130510581F68091E3
:101C7000A9018D7F8093A901CACF933049F48111C6
:101C8000C6CF4130510519F68091A9018260F2CF8B
:101C9000953041F48091E80080FFFCCF20682093CC
:101CA000E300B5CF963009F0A9C00B8D1C8D22E062
:101CB0001092E9001092A5011092A401F2122EC018
:101CC0001092A3011092A2010E946E021F8299E05D
:101CD0009983FA8291E09E8390EA98879AEF998798
:101CE0002091A4013091A501275F3F4F3C832B83B6
:101CF0008D831092E9001092A5011092A401109317
:101D0000A3010093A20149E050E0BE016F5F7F4F45
:101D100080E00E9416020E946E0279CF1093A30108
:101D20000093A2010E945A02DC0112960D911C91AF
:101D30000115110509F451C1D801ED91FC91048000
:101D4000F581E02DBE016B5E7F4FC80109950097BC
:101D500009F03EC1F80100851185EACFF3E0FF12DA
:101D60000EC08F89882309F440C0823061F440E8B6
:101D70006DE089E191E00E943D10811148CF81E240
:101D80008093EB0047CF813029F440E866E082E1A0
:101D900091E0F1CF833099F70E945A02DC0112964C
:101DA000ED90FC908E010F5F1F4F6801E114F1046C
:101DB00079F0D701ED91FC910680F781E02DB80113
:101DC000C7010995080F111DF701E084F184EECFDA
:101DD000D8011C92F60101900020E9F73197BF016C
:101DE0006C197D0940E0C601C6CF6CEF70E0FB01C5
:101DF000449150E080E80E94160209CF973009F420
:101E0000BECF983021F481E08093F10000CF99306B
:101E100009F0FDCE837009F0B2CFE1E0F1E081E09E
:101E200031E096E32191222371F08093E900309311
:101E3000EB00DF0111972C912093EC009093ED00C3
:101E40008F5F873079F78EE78093EA001092EA007F
:101E50008F898093BC02DBCE8B8D9C8D1092E90024
:101E60001092A5011092A4019093A3018093A20166
:101E7000898D811192C08E899D89913A49F4813270
:101E800009F07DCF47E050E06BE071E080E0B3CF38
:101E9000913209F074CF833269F48F89988DB0E064
:101EA000A0E08093070190930801A0930901B093EB
:101EB0000A01ADCE803269F48091E80082FFFCCF48
:101EC00067E08BE091E00E944D028BEF8093E80089
:101ED0009ECE823209F09BCE8F8980931201EEEF65
:101EE000FFE7859194918B3F9C4D51F1E0E0F8E044
:101EF00080910B0190910C01A0910D01B0910E0108
:101F0000803B9440A105B105F1F48091120180FD60
:101F10001AC0EE3F8AE0F80789F587E797E79183D3
:101F20008083809160008093A60188E19BE00FB6DA
:101F3000F894A895809360000FBE9093600067CEE0
:101F4000EEEFFAE0D5CF808191818737974709F08E
:101F50005ECEA8958091600088618093600080913A
:101F6000A60180936000EE3F2AE0F20789F080919D
:101F7000FE0A9091FF0A9183808349CE80819181EE
:101F80008737980751F29093FF0A8093FE0AC5CFD6
:101F90001092FF0A1092FE0A3ACE0E945A02DC0109
:101FA00012960D911C910115110509F4E8CED80186
:101FB000ED91FC910190F081E02DBE016B5E7F4FB1
:101FC000C8010995811123CEF80100851185EBCF59
:101FD000181619060CF41BCED2CEF1E0FF12BECEBD
:101FE00060E071E004CF1F920F920FB60F921124A0
:101FF0002F933F938F939F93AF93BF938091100242
:1020000090911102A0911202B091130230919101AE
:1020100023E0230F2D3758F50196A11DB11D209304
:1020200091018093100290931102A0931202B09339
:1020300013028091920190919301A0919401B0912B
:1020400095010196A11DB11D80939201909393017A
:10205000A0939401B0939501BF91AF919F918F91FF
:102060003F912F910F900FBE0F901F90189526E86B
:10207000230F0296A11DB11DD2CFEF92FF920F93B5
:102080001F93CF93DF93F82E192FE62E042F81E0B4
:10209000860F880F0E94E80183E00E94E801CF2D9F
:1020A000D12FEC0EFD2EF11CCE15DF05B9F007FF88
:1020B00013C0FE0184910E94E801182F80E00E9465
:1020C000E801812321968111EFCFDF91CF911F91FC
:1020D0000F91FF90EF9008958881EDCF81E0F5CFCB
:1020E000EF92FF920F931F93CF93DF93CDB7DEB79D
:1020F000C659D1090FB6F894DEBF0FBECDBF1092FE
:10210000C0021092BF0288EE93E0A0E0B0E080939E
:10211000C1029093C202A093C302B093C4028AE4A6
:1021200091E09093BE028093BD028FEF9FEF90935A
:10213000CA028093C902109246031092450310927E
:10214000490310924E0310924D038FEF93E090934A
:10215000500380934F0310925203109251039093B7
:102160005403809353031092560310925503909397
:1021700058038093570310925A0310925903909377
:102180005C0380935B0310925E0310925D03909357
:10219000600380935F031092620310926103909337
:1021A0006403809363031092660310926503909317
:1021B00068038093670310926A03109269039093F7
:1021C0006C0380936B0310926E0310926D039093D7
:1021D000700380936F0310927203109271039093B7
:1021E0007403809373031092760310927503909397
:1021F00078038093770373E07093790324E120934D
:10220000480310924A038FE180934B038AE0809346
:102210004C0335E0398391E09A8389E08B83F4E0C5
:10222000FC83E1EAED839E8345E84F837887398715
:102230008A8749E14B879C8749E24D872E8745E194
:102240004F87188A45E2498B9A8B65E76B8B9C8B8D
:1022500055E95D8B2E8B15E51F8B188E25E6298F92
:102260001A8E41E84B8F22E02C8F6D8F9E8F5F8FEF
:10227000F8A349A37AA33BA39CA38DA39EA376E1D5
:10228000E72EEFA298A7F0E8FF2EF9A606E20AA72C
:10229000BFEFBBA7AFE7ACA76DA7F0E1FEA75FA7B5
:1022A00038ABE9AB1AAA8BAB70E37CAB8DAB71E3B7
:1022B0007EAB8FAB72E378AF89AF73E37AAF8BAF4E
:1022C00074E37CAF4DAF2EAF70EC7FAF21963FAF84
:1022D000219722962FAF22972396EFAE239724962D
:1022E0009FAF24972596FFAE259726960FAF26978A
:1022F0002796BFAF27972896AFAF289729966FAF3D
:1023000029972A96FFAF2A972B965FAF2B972C968B
:102310002FAF2C972D96EFAF2D972E961FAE2E97A1
:102320002F968FAF2F979BEB60969FAF609761962C
:102330008FAF619785EC62968FAF629763964FAFD0
:10234000639764962FAF649765967FAF659766969F
:102350007FAF669785E590E00E947B187C01FE01C7
:102360003196DC0101900D921A95E1F787E090E03B
:102370000E947B188C01DC0111961C921E92139610
:10238000FC92EE92129785E590E015969C938E93C1
:10239000149716961C920E946F06FC01A385B485C3
:1023A000109709F077C01487038785859685D80133
:1023B00014962D913C91820F931F9687858790915B
:1023C0004803892F869586958695977009F06AC08F
:1023D0008093490310914903812F90E0009711F4F5
:1023E00081E090E00E947B18909346038093450320
:1023F00081E090914A03911101C080E0125F810F4A
:1024000080937A0310922C0310922B0310922E03C8
:1024100010922D031092300310922F03109232036A
:10242000109231031092340310923303109236034A
:1024300010923503109238031092370310923A032A
:102440001092390310923C0310923B0310923E030A
:1024500010923D031092400310923F038FEF9FEFC5
:1024600090934203809341039093440380934303EA
:1024700090E080E02091490328171906A9F0A4F004
:10248000E0914503F0914603E80FF91F1082019691
:10249000F1CFDC018D919C9111970097D1F70D93AD
:1024A0001C9383CF8F5F94CF1092140310921B0361
:1024B00010922203109223031092240310922503FA
:1024C00081E08093210380931E0310921F0392E00A
:1024D00090932003809313038CE390E09093180370
:1024E000809317030E947B1890931D0380931C0315
:1024F000009709F465C02CE3FC0111922A95E9F7D5
:1025000084E190E0909316038093150382E090E0BD
:1025100090931A038093190380911403882339F050
:1025200061E082E00E94940382E00E946D03E3E890
:10253000F1E0E491F0E0EE0FFF1FED58FE4F8591C2
:1025400094919093290380932803E6E5F1E0E491C8
:10255000E0932A0310920E0310920D0310921003C1
:1025600010920F03109212031092110390E080E07A
:102570000E94F60720910D0330910E03811129C0AE
:102580002115310519F0C9010E94171910920E0387
:1025900010920D0310921203109211031092100367
:1025A00010920F03CA56DF4F0FB6F894DEBF0FBE6E
:1025B000CDBFDF91CF911F910F91FF90EF900895C4
:1025C000109218031092170310921603109215031D
:1025D0009DCF10921203109211036BE671E0C901B6
:1025E0000E946F1ADFCFCF93DF93CDB7DEB7A397EB
:1025F0000FB6F894DEBF0FBECDBF789484B582606D
:1026000084BD84B5816084BD85B5826085BD85B596
:10261000816085BD80916E00816080936E00109214
:10262000810080918100826080938100809181008F
:102630008160809381008091800081608093800020
:1026400080919100826080939100809191008160DF
:1026500080939100809190008160809390008091A0
:10266000C10084608093C1008091C100826080932A
:10267000C1008091C10081608093C1008091C3003E
:1026800081608093C3008091C00082608093C0000D
:102690008091C20081608093C20080917A00846042
:1026A00080937A0080917A00826080937A00809192
:1026B0007A00816080937A0080917A0080688093AC
:1026C0007A001092BC021092A9011092A801809188
:1026D000D70081608093D70080EA8093D80089B5C5
:1026E000806189BD89B5826089BD09B400FEFDCFD6
:1026F00061E070E080E090E00E94C5048091D80025
:102700008F7C80618093D8008091E000807F8093EF
:10271000E0008091E1008E7E8093E1008DE0809367
:10272000E200559A209A8FEF9FEF9093CA02809310
:10273000C90210924E0310924D0388EE93E09093DD
:10274000500380934F0310926A0310926903909391
:102750006C0380936B031092720310927103909339
:102760007403809373034CEA51E090E080E0FA0137
:1027700030E020E08C0102561D4FBC0164507E4FBA
:10278000D801A20FB31F1C92DB01A20FB31F1C9232
:1027900011921192119211922F5F3F4F2430310507
:1027A00079F7405F5F4F04968431910501F70DE39F
:1027B00011E0D8018D918D01833619F062E00E94FD
:1027C0009403B1E001341B07A1F7B1E42B2EB1E073
:1027D0003B2EF10181911F01833619F062E00E94C6
:1027E0009403F6E42F16F1E03F0699F710E080918C
:1027F0004803181718F4812F0E94EB091F5F14314A
:10280000B1F78091190390911A0397FF11C181E0EC
:102810008093140381E090E0909327038093260334
:102820008091140290911502A0911602B0911702A6
:102830000196A11DB11D8093140290931502A093DF
:102840001602B09317020E94CC0A109247030E940E
:10285000530880E090E890935A03809359038FEFD8
:102860009FE790935C0380935B038091AA01909112
:10287000AB01866394609093AB018093AA018F5F54
:102880009F479093320380933103809147038111D6
:102890000E94530820E030E83093560320935503FC
:1028A0008FEF9FE790935803809357033093520321
:1028B00020935103909354038093530344244394EF
:1028C000A0E85A2E8FB7F894C0901002D090110251
:1028D000E0901202F09013028FBFC092B702D09224
:1028E000B802E092B902F092BA028091B6028F5F0C
:1028F0008093B602009114021091150220911602E5
:10290000309117028091180290911902A0911A0239
:10291000B0911B0246015701881A990AAA0ABB0AFC
:1029200087E090E0A0E0B0E0801B910BA20BB30B1E
:1029300088159905AA05BB05D8F460919D0270E041
:102940006F5F7F4F072E000C880B990BA901980130
:102950002F5F3F4F4F4F5F4F0E941C1860939D02A7
:10296000C0921802D0921902E0921A02F0921B0251
:1029700080915B0290915C02A0915D02B0915E0239
:10298000C81AD90AEA0AFB0A21E7C21627E1D206C9
:10299000E104F10450F010929B0280915A028823C6
:1029A00021F010925A020E94CC0A8DEB92E00E9414
:1029B0000703892B09F49AC08091B7029091B8025D
:1029C000A091B902B091BA0280935B0290935C022D
:1029D000A0935D02B0935E0281E080935A028DEB7A
:1029E00092E00E94C502209158023091590226308F
:1029F000310544F48F3F21F52F5F3F4F309359024B
:102A00002093580220915802309159022330310509
:102A10000CF46CC08F3F09F469C00E9424088091B7
:102A2000110390911203059780F40E94DF07F5CF00
:102A300061E00E949403809119030E946D03E7CE28
:102A40001092590210925802DDCF68E571E0809132
:102A50000D0390910E030E94661A892B41F48EE5B6
:102A600091E00E94E90789E691E00E94E9078091E0
:102A7000110390911203892BC9F000910D0310915D
:102A80000E036CE671E0C8010E94661A892B09F0FA
:102A900043C119A290E398A3A2E3AF8FCE014F9652
:102AA0000E94E90789E691E00E94E90790E080E052
:102AB0000E94F60720910D0330910E0381118AC107
:102AC0002115310519F0C9010E94171910920E0342
:102AD00010920D0310921203109211031092100322
:102AE00010920F03109259021092580290909D027A
:102AF00080909C02992011F0882069F180919B02BE
:102B0000882331F147E8A42E42E0B42E53E7E52EA6
:102B100052E0F52E6FE5C62E62E0D62E10E000E002
:102B2000D5016D915D01F70141917F01D6012D9194
:102B30006D01E0911503F09116030E171F0718F4AD
:102B4000C8010E94FC000F5F1F4F0431110541F7BF
:102B5000811010929C02B1E09B120EC080911C0368
:102B600090911D03892B41F08091260390912703BA
:102B7000892B11F00E94F5031092B5021092B40255
:102B80001092B3021092B2022EE9C22E22E0D22E8F
:102B900031E4E32E31E0F32EF70171907F01F2E68C
:102BA000F71508F446C061E0872D0E949403872D35
:102BB0000E946D039DE3A92E91E0B92E01E010E083
:102BC000D5012D915D01233650F530E0F901EB5C24
:102BD000FE4F8491F901EC5AFE4F8490F901EF57B2
:102BE000FE4F9490992009F4FFC081110E942103A7
:102BF000E92DF0E0EE0FFF1FE95DFE4FA591B491C6
:102C0000EC918E2231E020E009F430E0832F922F06
:102C1000F8013197EC0DFD1DB1E08B2780830F5F2C
:102C20001F4F0530110509F0CBCF62E0872D0E94C0
:102C30009403E4E0CE0ED11C2E143F0409F0ACCF77
:102C400061E081E00E940D0A62E081E00E940D0ACD
:102C500063E081E00E940D0A64E081E00E940D0AB9
:102C600061E082E00E940D0A62E082E00E940D0AAB
:102C700063E082E00E940D0A64E082E00E940D0A97
:102C800061E083E00E940D0A62E083E00E940D0A89
:102C900063E083E00E940D0A64E083E00E940D0A75
:102CA00061E084E00E940D0A62E084E00E940D0A67
:102CB00063E084E00E940D0A64E084E00E940D0A53
:102CC00061E085E00E940D0A62E085E00E940D0A45
:102CD00063E085E00E940D0A64E085E00E940D0A31
:102CE0005092300340922F038091470381110E943C
:102CF000530850922E0340922D0380914703811177
:102D00000E9453080E94530880E090E0892B09F448
:102D1000D9CD0E940000D6CD62E771E0C8010E94C3
:102D2000661A892B09F0C2CE74E4E72E72E0F72E02
:102D3000E0E3CE2EE2E0DE2EFCE16F2EF2E07F2E0D
:102D40005301460187010E94DF078AA30E94DF0723
:102D50008BA30E94DF07F8012AA121938F01D401E0
:102D6000EBA1ED934D01D5018D935D01E8E5F2E016
:102D7000E017F10741F70E94DF078F3F910509F047
:102D800095CE0E94DF078E3F910509F08FCE0E94FD
:102D9000DF078D3F910509F089CEF1E0F0939B02AA
:102DA00087E892E0A3E7B2E04FE552E0F701219116
:102DB0007F01FC012193CF01F60121916F012D9339
:102DC000F30121913F01FA012193AF010E151F0577
:102DD00069F76CCE10921203109211036BE671E04A
:102DE000C9010E946F1A7ECE90E080E011CF8091E1
:102DF0000D0390910E03009711F00E941719809116
:102E00001C0390911D030E94171980911903909142
:102E10001A0397FD03C060E00C94940308958F9209
:102E20009F92AF92BF92CF92DF92EF92FF92CF9399
:102E3000DF93EC01688179818A819B81611571053D
:102E40008105910521F464E279ED8BE597E02DE1B0
:102E500033EF41E050E00E94B31749015A019B0152
:102E6000AC01A7EAB1E40E94D2176B017C01ACEE81
:102E7000B4EFA50194010E94E017C60ED71EE81E0C
:102E8000F91EF7FE06C081E0C81AD108E10880E803
:102E9000F80AC882D982EA82FB82C701B6019F770D
:102EA000DF91CF91FF90EF90DF90CF90BF90AF90E8
:102EB0009F908F9008958F929F92AF92BF92CF92E2
:102EC000DF92EF92FF926091130170911401809153
:102ED000150190911601611571058105910521F487
:102EE00064E279ED8BE597E02DE133EF41E050E0CE
:102EF0000E94B31749015A019B01AC01A7EAB1E452
:102F00000E94D2176B017C01ACEEB4EFA5019401D5
:102F10000E94E017C60ED71EE81EF91EF7FE06C077
:102F200081E0C81AD108E10880E8F80AC0921301CC
:102F3000D0921401E0921501F0921601C701B6017A
:102F40009F77FF90EF90DF90CF90BF90AF909F90D2
:102F50008F9008956093130170931401809315016D
:102F6000909316010895052E97FB1EF400940E947D
:102F7000CA1757FD07D00E941C1807FC03D04EF457
:102F80000C94CA1750954095309521953F4F4F4F5F
:102F90005F4F089590958095709561957F4F8F4F05
:102FA0009F4F08950E943E18A59F900DB49F900DCD
:102FB000A49F800D911D11240895B7FF0C94D21782
:102FC0000E94D217821B930B08952F923F924F922B
:102FD0005F926F927F928F929F92AF92BF92CF92A9
:102FE000DF92EF92FF920F931F93CF93DF93CDB7B2
:102FF000DEB7CA1BDB0B0FB6F894DEBF0FBECDBF2A
:1030000009942A88398848885F846E847D848C84FA
:103010009B84AA84B984C884DF80EE80FD800C8103
:103020001B81AA81B981CE0FD11D0FB6F894DEBFE6
:103030000FBECDBFED010895A1E21A2EAA1BBB1B46
:10304000FD010DC0AA1FBB1FEE1FFF1FA217B30774
:10305000E407F50720F0A21BB30BE40BF50B661F8A
:10306000771F881F991F1A9469F76095709580954E
:1030700090959B01AC01BD01CF010895A29FB001C5
:10308000B39FC001A39F700D811D1124911DB29F9C
:10309000700D811D1124911D089597FB072E16F4C4
:1030A000009407D077FD09D00E94671807FC05D06F
:1030B0003EF4909581959F4F0895709561957F4F4F
:1030C0000895EE0FFF1F0590F491E02D0994AA1BBF
:1030D000BB1B51E107C0AA1FBB1FA617B70710F003
:1030E000A61BB70B881F991F5A95A9F78095909535
:1030F000BC01CD0108950F931F93CF93DF938230CE
:10310000910510F482E090E0E0917D03F0917E0360
:1031100030E020E0B0E0A0E0309799F421153105CF
:1031200009F44AC0281B390B24303105D8F58A81AF
:103130009B816115710589F1FB0193838283FE01F7
:1031400011C0408151810281138148175907E0F075
:103150004817590799F4109761F012960C9312973B
:1031600013961C933296CF01DF91CF911F910F914F
:10317000089500937D0310937E03F4CF211531054C
:1031800051F04217530738F0A901DB019A01BD0144
:10319000DF01F801C1CFEF01F9CF90937E03809357
:1031A0007D03CDCFFE01E20FF31F81939193225057
:1031B000310939832883D7CF20917B0330917C0359
:1031C000232B41F42091190130911A0130937C0393
:1031D00020937B03209117013091180121153105AF
:1031E00041F42DB73EB740911B0150911C01241BA7
:1031F000350BE0917B03F0917C03E217F307A0F419
:103200002E1B3F0B2817390778F0AC014E5F5F4F3C
:103210002417350748F04E0F5F1F50937C034093EF
:103220007B03819391939FCFF0E0E0E09CCFCF931D
:10323000DF930097E9F0FC01329713821282A0918C
:103240007D03B0917E03ED0130E020E01097A1F402
:1032500020813181820F931F20917B0330917C0369
:103260002817390709F061C0F0937C03E0937B03D2
:10327000DF91CF910895EA01CE17DF07E8F54A8183
:103280005B819E0141155105B1F7E901FB83EA839A
:1032900049915991C40FD51FEC17FD0761F4808146
:1032A00091810296840F951FE90199838883828119
:1032B00093819B838A83F0E0E0E012968D919C914C
:1032C00013970097B9F52D913C911197CD01029676
:1032D000820F931F20917B0330917C0328173907BD
:1032E00039F6309751F510927E0310927D03B0931A
:1032F0007C03A0937B03BCCFD383C28340815181E5
:10330000840F951FC817D90761F44E5F5F4F8881FE
:103310009981480F591F518340838A819B819383F0
:1033200082832115310509F0B0CFF0937E03E0933D
:103330007D039ECFFD01DC01C0CF13821282D7CF67
:10334000B0E0A0E0E6EAF9E10C94E7178C01009701
:1033500051F4CB010E947B188C01C801CDB7DEB7B8
:10336000E0E10C940318FC01E60FF71F9C012250CA
:103370003109E217F30708F49DC0D901CD91DC9122
:103380001197C617D70798F0C530D10530F3CE0195
:1033900004978617970708F3C61BD70B2297C1938C
:1033A000D1936D937C93CF010E941719D6CF5B0107
:1033B000AC1ABD0A4C018C0E9D1EA0917D03B091EC
:1033C0007E03512C412CF12CE12C109731F580918A
:1033D0007B0390917C038815990509F05CC0461623
:1033E000570608F058C08091170190911801009776
:1033F00041F48DB79EB740911B0150911C01841B75
:10340000950BE817F90708F055C0F0937C03E0939B
:103410007B03F90171836083A0CF8D919C911197FB
:1034200012966C90129713967C901397A815B90575
:1034300059F56C0142E0C40ED11CCA14DB0420F122
:10344000AC014A195B09DA011296159780F0628285
:10345000738251834083D9016D937C93E114F1040D
:1034600071F0D7011396FC93EE93129776CF2296C4
:103470008C0F9D1FF90191838083F301EFCFF093AF
:103480007E03E0937D0369CF4816590608F42C01AA
:103490007D01D3019ACFCB010E947B187C0100975C
:1034A00049F0AE01B8010E945D1AC8010E941719C7
:1034B000870153CF10E000E050CFFB01DC0102C0D8
:1034C00001900D9241505040D8F70895FB01DC0166
:1034D0008D91019080190110D9F3990B0895FB018A
:1034E000DC0101900D920020E1F7089510E0C1ED9C
:1034F000D0E004C0FE010E9461182196C23DD107B0
:06350000C9F7F894FFCFAB
:1035060000C18081000000FFFFFFFF00E100000016
:103516000000000100000000007F0380001312116C
:10352600100F0E0D0C0B0A0908070605040302010D
:103536000000000000A8052406E605CB05060504E4
:1035460003100A090807000000009F029205C00246
:10355600B5020703C502E30270726F746F00534928
:103566004D4855425F312E30000D0A006C6564737C
:083576006300736C65647300CF
:00000001FF
